:040000007CEF00F0A1
:100008000182FACF04F0FBCF05F0D9CF06F0DACFA2
:1000180007F0F2A612EF00F014EF00F01FEF00F067
:10002800F2A019EF00F01BEF00F01FEF00F066ECF4
:100038008EF072EF00F0F2AC24EF00F026EF00F043
:1000480072EF00F09DA82BEF00F02DEF00F044EFC9
:1000580000F09EA832EF00F034EF00F044EF00F01B
:1000680002D842EF00F00500FA6E0101FB51FD6E67
:10007800FC51FE6EFD51FF6EFA50120072EF00F057
:100088009DAA49EF00F04BEF00F062EF00F09EAA46
:1000980050EF00F052EF00F062EF00F002D860EF8E
:1000A80000F00500FA6E0101F851FD6EF951FE6E7F
:1000B800FA51FF6EFA50120072EF00F09DA067EF40
:1000C80000F069EF00F072EF00F09EA06EEF00F014
:1000D80070EF00F072EF00F095EC8CF007C0DAFFDB
:1000E80006C0D9FF05C0FBFF04C0FAFF019211004A
:0400F80049EF8AF052
:10FDA600000006010502050306040505050606070B
:10FDB60005080609050A050B050C060D050E050FB7
:10FDC6000510061105120513061405150616051766
:10FDD60005414447484E53555C5F6065696A7277D2
:10FDE600787B7E1F1E1F1E1F1F1E1F1E1F1F1D50DE
:10FDF600494331384636374A36302045746865728D
:10FE06006E657400FFFFF155FFFF44000000003CE3
:10FE160025643E25642025642D252E32642D252E4D
:10FE2600326454252E32643A252E32643A252E3217
:10FE3600645A2025642E25642E25642E25642025EB
:10FE4600732025732025732025735B25735D0D0AAA
:10FE5600000A0A5374617274696E67205379736C71
:10FE66006F6720617420256C750A004541506F6CE0
:10FE76005F5041434B45545F4641494C55524500FE
:10FE86003830322E33206C656E67746820307825E2
:10FE960030346C580069636D702077726F6E67201E
:10FEA600636B736D203A20257800444553545F49AF
:10FEB600505F4E4F545F4D415443484544004950AE
:10FEC60056345F434845434B53554D5F4641494C75
:10FED600530049434D505F434845434B53554D5F8F
:10FEE6004641494C53004152505F49505F4E4F5472
:10FEF6005F4D41544348454400504F52545F4E4F66
:10FF0600545F415641494C41424C45005443505F71
:10FF1600434845434B53554D5F4641494C53005565
:10FF260044505F434845434B53554D5F4641494C0A
:10FF360053003830322E332074797065203078259E
:10FF460030346C580054585F4C4F4749435F4E4F0E
:10FF5600545F49444C450054252E32643A252E32CE
:10FF6600643A252E32645A0049505F57524F4E4725
:10FF76005F56455253494F4E004C494E4B5F4E4FCC
:10FF8600545F464F554E44004D41435F4E4F545FBC
:10FF9600464F554E44002025642E25642E25642E9A
:10FFA60025640025642D252E32642D252E3264000D
:10FFB600444D415F54494D454F55540042554646C0
:10FFC60045525F42555359003C25643E2564200046
:10FFD6005355434345535300286E756C6C290045B1
:10FFE60052524F52002025735B00474D5400202586
:09FFF60073005D002D002E0000D7
:020000040001F9
:100000002F50D96EDA6ADECFF6FFDDCFF7FF000E94
:10001000F86E0800F550250AD8A411EF80F013EF10
:1000200080F0E6EF81F02F50D96EDA6ADE2A000EFA
:10003000DD220001916B000E906F90C0A2F0456828
:1000400046682F50D96EDA6ADECFF6FFDDCFF7FFB4
:10005000000EF86E0800F5502E0AD8A432EF80F09A
:1000600034EF80F044EF80F02F50D96EDA6ADE2A48
:10007000000EDD222FC008F030C009F0ABEC88F094
:1000800008C045F009C046F02F50D96EDA6ADECFBD
:100090003AF0DDCF3BF03AC0F6FF3BC0F7FF000E71
:1000A000F86E0800F5CF39F061EF80F03A4A3B2A4C
:1000B00074EF80F0690E396E74EF80F0396A74EF76
:1000C00080F03950640AD8B45AEF80F00D0AD8B4E1
:1000D0005AEF80F0050AD8B456EF80F0190AD8B468
:1000E0005AEF80F05EEF80F03AC0F6FF3BC0F7FFBA
:1000F000000EF86E0800F550640AD8B482EF80F064
:1001000084EF80F0BDEF80F03AC0F6FF3BC0F7FF10
:10011000000EF86E0800F550690AD8A492EF80F03E
:1001200094EF80F0E3EF80F0BDEF80F030C0D9FFB6
:1001300031C0DAFFDF50DF2ADF2AD96EDA6ADECF7C
:1001400035F0DDCF36F0000E36BEFF0E376E386E5E
:10015000C8EF80F030C0D9FF31C0DAFF040EDF26CF
:10016000DF5CD96EDA6ADECF35F0DECF36F0DECF77
:1001700037F0DECF38F0C8EF80F03950690AD8B4D4
:1001800096EF80F0050AD8B4AAEF80F0C8EF80F0AF
:10019000010E3A24326E000E3B20336E2F50D96E82
:1001A000DA6A32C0DEFF33C0DDFF2EC020F035C07A
:1001B00021F036C022F037C023F038C024F09BEC89
:1001C00084F0F9EF81F03AC0F6FF3BC0F7FF000E74
:1001D000F86E0800F550750AD8A4F1EF80F0F3EF3F
:1001E00080F053EF81F01DEF81F030C0D9FF31C0B6
:1001F000DAFFDF50DF2ADF2AD96EDA6ADECF32F08B
:10020000DDCF33F032C035F033C036F0376A386AAC
:1002100028EF81F030C0D9FF31C0DAFF040EDF26AD
:10022000DF5CD96EDA6ADECF35F0DECF36F0DECFB6
:1002300037F0DECF38F028EF81F03950690AD8B4B2
:10024000F5EF80F0050AD8B40AEF81F028EF81F0CD
:10025000010E3A24326E000E3B20336E2F50D96EC1
:10026000DA6A32C0DEFF33C0DDFF45EF81F02EC019
:1002700020F035C021F036C022F037C023F038C05E
:1002800024F068EC85F0F9EF81F03AC0F6FF3BC04E
:10029000F7FF000EF86E0800F550750AD8B437EF76
:1002A00081F053EF81F0346A2F50D96EDA6ADECFD5
:1002B000F6FFDDCFF7FF000EF86E0800F550730A69
:1002C000D8A465EF81F067EF81F071EF81F02F50D6
:1002D000D96EDA6ADE2A000EDD22010E346EC3EF1B
:1002E00081F02F50D96EDA6ADECFF6FFDDCFF7FF4F
:1002F000000EF86E0800F5506C0AD8A482EF81F069
:1003000084EF81F0C3EF81F02F50D96EDA6ADECF2F
:1003100032F0DDCF33F0010E3226000E332232C030
:10032000F6FF33C0F7FF000EF86E0800F5506C0AB8
:10033000D8A49DEF81F09FEF81F0C3EF81F02F50A3
:10034000D96EDA6ADECF32F0DDCF33F0020E32261C
:10035000000E332232C0F6FF33C0F7FF000EF86EF6
:100360000800F550730AD8A4B8EF81F0BAEF81F015
:10037000C3EF81F02F50D96EDA6A030EDE26000E2D
:10038000DD226DEF81F03450D8B4C9EF81F0CBEFAE
:1003900081F0DEEF81F02EC012F030C0D9FF31C005
:1003A000DAFF020EDF26DF5CD96EDA6ADECF13F0E9
:1003B000DECF14F0F9EC86F0F9EF81F02F50D96E12
:1003C000DA6ADE2A000EDD22F9EF81F02F50D96EB5
:1003D000DA6ADECFF6FFDDCFF7FF000EF86E080019
:1003E000F5500A6E0B6A2EC00CF04EEC88F0DEEF72
:1003F00081F012001950800B266E195019242D6EB1
:1004000018AE05EF82F007EF82F008EF82F02D8042
:100410002D50D8B40EEF82F010EF82F024EF82F06E
:100420002D28D8A416EF82F018EF82F020EF82F08A
:10043000000E166E000E176E000E186E000E196E6E
:10044000188E196A2CEF82F0000E166E000E176ED1
:10045000000E186E000E196E1D50800B261A1D50CE
:100460001D242E6E1CAE37EF82F039EF82F03AEF8A
:1004700082F02E802E50D8B440EF82F042EF82F00E
:1004800056EF82F02E28D8A448EF82F04AEF82F08F
:1004900052EF82F0000E1A6E000E1B6E000E1C6EE4
:1004A000000E1D6E1C8E1D6A5EEF82F0000E1A6E2D
:1004B000000E1B6E000E1C6E000E1D6E1A501B10DF
:1004C0001C101D10D8A467EF82F069EF82F081EF55
:1004D00082F0000E166E000E176E000E186E000EE3
:1004E000196E800E18127F0E19122650191216C09E
:1004F00016F017C017F018C018F019C019F0C0EFA7
:1005000083F02D50D8A487EF82F089EF82F093EF2B
:1005100082F0000E166E000E176E000E186E000EA2
:10052000196EC0EF83F02E502DC01EF01F6A1E5EA4
:10053000000E1F5A7F0E1E24276E000E1F20286EED
:1005400016C022F017C023F018C024F019C025F0FF
:10055000000E166E000E176E000E186E000E196E4D
:10056000000E296E000E2A6E000E2B6E000E2C6EF1
:100570002E6AF3EF82F02E50D8B4C1EF82F0C3EFB1
:1005800082F0DAEF82F0D8902236233624362536F0
:10059000D89016361736183619362CAED2EF82F0B0
:1005A000D4EF82F0D5EF82F01680D89029362A3623
:1005B0002B362C361A50225C1B5023581C502458C2
:1005C0001D502558D8A0E7EF82F0E9EF82F0F2EF56
:1005D00082F02C8C1A50225E1B50235A1C50245A35
:1005E0001D50255A2E2A190E2E64F9EF82F0FBEFCA
:1005F00082F0BBEF82F02250231024102510D8B4D3
:1006000004EF83F006EF83F01EEF83F029801EEFE6
:1006100083F0D89016361736183619362CAE13EFED
:1006200083F015EF83F016EF83F01680D89029360B
:100630002A362B362C362706D8A0280618AE23EFEC
:1006400083F025EF83F009EF83F02E6A2CAE2BEFB9
:1006500083F02DEF83F051EF83F0FF0E29141E6E0F
:10066000FF0E2A141F6EFF0E2B14206E7F0E2C140B
:10067000216E1E501F1020102110D8B442EF83F0BD
:1006800044EF83F048EF83F0010E2E6E51EF83F0BC
:1006900016A04DEF83F04FEF83F051EF83F044EF5E
:1006A00083F02E50D8B457EF83F059EF83F07DEFED
:1006B00083F0010E1626000E17221822192219A007
:1006C00064EF83F066EF83F07DEF83F016C01EF0D9
:1006D00017C01FF018C020F019C021F021342132BA
:1006E00020321F321E321EC016F01FC017F020C06D
:1006F00018F021C019F0274A282A28BE88EF83F075
:10070000285008E12728D8A088EF83F08AEF83F0EB
:1007100095EF83F0000E286E2768000E166E000E0F
:10072000176E000E186E000E196E28BEA2EF83F031
:10073000285006E12704D8B0A0EF83F0A2EF83F0A1
:10074000AEEF83F0286A000E276E000E166E000EC4
:10075000176E000E186E000E196E266A27C02DF057
:100760002DA0B5EF83F0B7EF83F0BAEF83F0188ECA
:10077000BBEF83F0189ED8902D30196E75EF82F084
:100780001200106E1050D8B4C8EF83F0CAEF83F097
:10079000ECEF83F00BBED1EF83F0CFEF83F0ECEF03
:1007A00083F008C00CF009C00DF00AC00EF00BC0B9
:1007B0000FF00C1E0D1E0E1E0F1E0C2A000E0D2219
:1007C0000E220F220CC012F00DC013F00EC014F058
:1007D0000FC015F0F4EF83F008C012F009C013F059
:1007E0000AC014F00BC015F0085009100A100B10C5
:1007F000D8A4FDEF83F0FFEF83F009EF84F0000E43
:10080000086E000E096E000E0A6E000E0B6E9AEF57
:1008100084F0960E116E13EF84F0112AD8901532E1
:10082000143213321232000E12140C6E000E131416
:100830000D6E000E14140E6EFE0E15140F6E0C507D
:100840000D100E100F10D8A428EF84F02AEF84F0BA
:100850000DEF84F038EF84F0112A010E1226000EFD
:10086000132214221522D890153214321332123268
:10087000000E12140C6E000E13140D6E000E1414E4
:100880000E6EFF0E15140F6E0C500D100E100F1083
:10089000D8A44DEF84F04FEF84F02CEF84F057EFA5
:1008A00084F01106D890123613361436153614BE5D
:1008B0005CEF84F05EEF84F066EF84F0020E11606E
:1008C00064EF84F066EF84F051EF84F011B06BEFC9
:1008D00084F06DEF84F06EEF84F0149ED8901132A6
:1008E00011C00CF00D6A0E6A0F6A0CC00FF00E6A90
:1008F0000D6A0C6A0C5012120D5013120E50141285
:100900000F5015121050D8B488EF84F08AEF84F09D
:1009100092EF84F00BBE91EF84F08FEF84F092EFB2
:1009200084F0158E12C008F013C009F014C00AF04C
:1009300015C00BF0120024BEA0EF84F0A3EF84F0EA
:10094000010EA4EF84F0000E2B6E46BEACEF84F0D7
:10095000AAEF84F0B1EF84F02A6A010E296EB5EF98
:1009600084F045C029F046C02AF090C027F091C01D
:1009700028F02B50D8B4BFEF84F0C1EF84F0D6EF4D
:1009800084F02706D8A028062B50D8A4CAEF84F0FC
:10099000CCEF84F0D1EF84F0266A2B0E256ED4EFD5
:1009A00084F0266A2D0E256E25C02BF02D6A1F0EB1
:1009B0002C6E0101686B21EF85F02C06D8A02D0666
:1009C000490E2C24D96E010E2D20DA6E21C008F0BC
:1009D00022C009F023C00AF024C00BF00A0E0C6EEE
:1009E000000E0D6E000E0E6E000E0F6E79EC87F08D
:1009F00008C012F009C013F0F3EC8CF01250300F65
:100A0000DF6E2906D8A02A062706D8A0280621C00E
:100A100008F022C009F023C00AF024C00BF00A0E2F
:100A20000C6E000E0D6E000E0E6E000E0F6EF1ECD1
:100A300085F008C021F009C022F00AC023F00BC0E5
:100A400024F02DBE2CEF85F02D5008E12C04D8A009
:100A50002CEF85F02EEF85F046EF85F02150221027
:100A600023102410D8A437EF85F039EF85F0DDEF9F
:100A700084F02ABE46EF85F02A5006E12904D8B05A
:100A800044EF85F046EF85F0DDEF84F02B50D8B4CD
:100A90004CEF85F04EEF85F059EF85F02C06D8A08D
:100AA0002D06490E2C24D96E010E2D20DA6E2BC096
:100AB000DFFF20C018F0490E2C24196E010E2D20E6
:100AC0001A6E27C01BF028C01CF064EC8BF01200DB
:100AD00046BE6FEF85F06DEF85F074EF85F0286A04
:100AE000010E276E78EF85F045C027F046C028F04C
:100AF00090C025F091C026F02A6A1F0E296E0101D0
:100B0000686BC1EF85F02906D8A02A06490E292472
:100B1000D96E010E2A20DA6E21C008F022C009F039
:100B200023C00AF024C00BF00A0E0C6E000E0D6EEE
:100B3000000E0E6E000E0F6EE1EC8AF00850300FC2
:100B4000DF6E2706D8A028062506D8A0260621C0D5
:100B500008F022C009F023C00AF024C00BF00A0EEE
:100B60000C6E000E0D6E000E0E6E000E0F6E58EC29
:100B700089F008C021F009C022F00AC023F00BC0A0
:100B800024F029502A10D8B4C8EF85F0CAEF85F0B8
:100B9000E2EF85F02150221023102410D8A4D3EFC7
:100BA00085F0D5EF85F083EF85F028BEE2EF85F084
:100BB000285006E12704D8B0E0EF85F0E2EF85F099
:100BC00083EF85F020C018F0490E2924196E010E1C
:100BD0002A201A6E25C01BF026C01CF064EC8BF096
:100BE0001200116A0FBEF9EF85F0F7EF85F003EF01
:100BF00086F00F1E0E1E0D1E0C6C000E0D220E2216
:100C00000F22010E116E0BBE0AEF86F008EF86F080
:100C100014EF86F00B1E0A1E091E086C000E092236
:100C20000A220B22010E111A000E126E000E136E14
:100C3000000E146E000E156E0C500D100E100F10DD
:100C4000D8B425EF86F027EF86F05DEF86F0010E31
:100C5000106E31EF86F0D8900C360D360E360F360A
:100C6000102A0FAE36EF86F038EF86F02BEF86F0C5
:100C7000D89012361336143615360C50085C0D50C9
:100C800009580E500A580F500B58D8A04AEF86F05A
:100C90004CEF86F055EF86F00C50085E0D50095A67
:100CA0000E500A5A0F500B5A1280D8900F320E3243
:100CB0000D320C32102E38EF86F01150D8B463EF9D
:100CC00086F065EF86F06DEF86F0151E141E131E7C
:100CD000126C000E13221422152212C008F013C049
:100CE00009F014C00AF015C00BF012003134323490
:100CF000386E3850D8A47FEF86F081EF86F08BEF06
:100D000086F0000E2F6E000E306E000E316E000E5B
:100D1000326EF8EF86F02FC033F030C034F031C0BF
:100D200035F032C036F0200E9BEF86F0D890363288
:100D3000353234323332E82E96EF86F03350376E48
:100D4000318EFF0E2F16FF0E3016FF0E3116000EDD
:100D50003216960E385E38BEB2EF86F0B0EF86F0EF
:100D6000C8EF86F03850800A970FD8B0BAEF86F0F7
:100D7000BCEF86F0BEEF86F081EF86F0D89032327D
:100D8000313230322F32383EBEEF86F0E0EF86F05F
:100D90001F0E3864CEEF86F0D0EF86F0D8EF86F0E5
:100DA00081EF86F0D8902F3630363136323638061D
:100DB0003850D8A4DEEF86F0E0EF86F0D2EF86F070
:100DC0003750D8B4E6EF86F0E8EF86F0F0EF86F023
:100DD000321E311E301E2F6C000E30223122322284
:100DE0002FC02FF030C030F031C031F032C032F0BF
:100DF000120013C019F014C01AF019501A10D8A418
:100E000004EF87F006EF87F00AEF87F0DE0E196E29
:100E1000FF0E1A6E1C6A000E1B6E11EF87F01B4A44
:100E20001C2A1B501924156E1C501A20166E15C052
:100E3000F6FF16C0F7FF000EF86E0F0EF76403D032
:100E40000800F55005D0F6CFE9FFF7CFEAFFEF50E5
:100E50000009D8A42EEF87F030EF87F00FEF87F06E
:100E600046BE35EF87F037EF87F04AEF87F01B502B
:100E7000455C4650800A156E1C50800A1558D8B043
:100E800044EF87F046EF87F04AEF87F045C01BF04C
:100E900046C01CF01BC017F01CC018F06BEF87F0A9
:100EA00019C0F6FF1AC0F7FF000EF86E0F0EF764B8
:100EB00003D00800F55005D0F6CFE9FFF7CFEAFFE1
:100EC000EF50156E15500A6E0B6A12C00CF04EEC06
:100ED00088F0194A1A2A1706D8A01806172806E11A
:100EE0001828D8A476EF87F078EF87F050EF87F0D6
:100EF0001200116A0BBE81EF87F07FEF87F08BEF56
:100F000087F00B1E0A1E091E086C000E09220A2219
:100F10000B22010E116E0FBE92EF87F090EF87F05B
:100F20009AEF87F00F1E0E1E0D1E0C6C000E0D2288
:100F30000E220F220C500D100E100F10D8B4A3EF7C
:100F400087F0A5EF87F0D5EF87F0010E106EAFEFB9
:100F500087F0D8900C360D360E360F36102A0FAEAD
:100F6000B4EF87F0B6EF87F0A9EF87F00C50085C7C
:100F70000D5009580E500A580F500B58D8A0C3EF07
:100F800087F0C5EF87F0CDEF87F00C50085E0D506D
:100F9000095A0E500A5A0F500B5AD8900F320E327F
:100FA0000D320C32102EB6EF87F01150D8B4DBEFB3
:100FB00087F0DDEF87F0E5EF87F00B1E0A1E091EB4
:100FC000086C000E09220A220B2208C008F009C092
:100FD00009F00AC00AF00BC00BF01200170E5024E3
:100FE000D96EDA6A010EDA22DF6AABA4FAEF87F073
:100FF000FCEF87F011EF88F0170E5024D96EDA6AF3
:10100000010EDA22DF8202D811EF88F00500FA6EB5
:101010000101F551FD6EF651FE6EF751FF6EFA506B
:101020001200ABA216EF88F018EF88F02DEF88F0D1
:10103000170E5024D96EDA6A010EDA22DF8402D844
:101040002DEF88F00500FA6E0101F251FD6EF351AB
:10105000FE6EF451FF6EFA501200170E5024D96E36
:10106000DA6A010EDA22DF50D8B439EF88F03BEFAC
:1010700088F04BEF88F002D849EF88F00500FA6E4F
:101080000101EF51FD6EF051FE6EF151FF6EFA500D
:1010900012004DEF88F056EC8DF012000C50D8B4D1
:1010A00054EF88F056EF88F05EEF88F00C50D8A42B
:1010B0005CEF88F05EEF88F063EF88F00A504EEC4A
:1010C0008EF0AAEF88F00C50D96EDA6A090ED92694
:1010D000DE50DE10D8B46FEF88F071EF88F08AEF41
:1010E00088F00C50D96EDA6A090ED9260C50E16EE0
:1010F000E26A020EE126DE50E65CE650800A116EDE
:10110000DE50800A1158D8B088EF88F08AEF88F056
:10111000AAEF88F00C50D96EDA6A020ED926DECF1B
:101120000DF0DDCF0EF00C50D96EDA6ADECF0FF085
:10113000DDCF10F00D500F24D96E0E501020DA6E56
:101140000AC0DFFF0C50D96EDA6A020ED926DE2AF9
:10115000000EDD2212000E6A000E0D6E0850D96ED0
:10116000DA6ADECFF6FFDDCFF7FF000EF86E08007B
:10117000F5502A0AD8A4BFEF88F0C1EF88F0EAEF53
:1011800088F00850D96EDA6ADE2A000EDD22095096
:10119000D96EDA6A020EDF26DF5CD96EDA6ADECF3C
:1011A0000DF0DECF0EF0FFEF88F00A0E0D02F3CF48
:1011B0000AF0F4CF0BF00E02F3500B260C500A2469
:1011C0000D6E000E0B200E6E0850D96EDA6ADE2A04
:1011D000000EDD220850D96EDA6ADECFF6FFDDCFD1
:1011E000F7FF000EF86E0800F550D00F0C6E090ED8
:1011F0000C64FDEF88F0FFEF88F0D5EF88F00DC0AC
:1012000008F00EC009F01200CAEC8DF0CC6ACA904A
:10121000CA9281828184100E0101FF6FDB0EFE6F86
:10122000640EE82EFED7FE2FFCD7FF2FFAD7000062
:101230008192819402019F6BAAEC89F039C09DF2E2
:101240003AC09EF202019EBF30EF89F09D05020E6A
:101250009E59D8B02EEF89F030EF89F03DEF89F03C
:10126000818281949F05D8A438EF89F03AEF89F004
:1012700048EF89F0818448EF89F0819281849F054D
:10128000D8A445EF89F047EF89F048EF89F08182D3
:10129000080E0101FF6FEE0EFE6F310EE82EFED735
:1012A000FE2FFCD7FF2FFAD71CEF89F07CEF00F060
:1012B000000E106E000E116E000E126E000E136EF8
:1012C0000C500D100E100F10D8B469EF89F06BEFB1
:1012D00089F0A1EF89F0010E146E75EF89F0D890B6
:1012E0000C360D360E360F36142A0FAE7AEF89F013
:1012F0007CEF89F06FEF89F0D890103611361236F6
:1013000013360C50085C0D5009580E500A580F50F7
:101310000B58D8A08EEF89F090EF89F099EF89F003
:101320000C50085E0D50095A0E500A5A0F500B5AB5
:101330001080D8900F320E320D320C32142E7CEF0A
:1013400089F010C008F011C009F012C00AF013C0F3
:101350000BF01200000E3B6E000E3C6E000E3D6E58
:10136000000E3E6ECC6A8086140EE82EFED700D0AA
:10137000809681AABEEF89F0C0EF89F0B9EF89F0BD
:10138000CA8481BAC6EF89F0C8EF89F0C1EF89F04D
:10139000CA94AE0E1A6E470E1B6E6B0E1C6E420E7A
:1013A0001D6ECC50086E096A0A6A0B6A010EC1EC08
:1013B00083F008C016F009C017F00AC018F00BC07F
:1013C00019F0FAEC81F016C02FF017C030F018C0F9
:1013D00031F019C032F076EC86F02FC03FF030C00B
:1013E00040F031C041F032C042F0CC503FC039F043
:1013F00040C03AF01200000E086EF2EC8BF008C00C
:1014000098F209C099F20AC09AF20BC09BF2570EEB
:101410000001DB6FFE0EDC6F98C2DDF099C2DEF0DA
:101420009AC2DFF09BC2E0F0E9EC8DF002019C6B08
:101430009C51020DA70EF324F66EFD0EF420F76EFC
:10144000F86A000EF8220800F550436E446A000E58
:101450004324D96E010E4420DA6E9C51020D010E18
:10146000F326000EF422A70EF324F66EFD0EF420F0
:10147000F76EF86A000EF8220800F5CFDFFF9C2B0C
:10148000160E9C6546EF8AF048EF8AF018EF8AF056
:1014900012004C0EF66E1A0EF76E010EF86E02EE8A
:1014A00068F010EE30F00900F5CFEEFFE550E150A6
:1014B000FAE1940EF66E180EF76E010EF86E01EE5C
:1014C0009CF010EE50F00900F5CFEEFFE550E15032
:1014D000FAE1C00EF66E1C0EF76E010EF86E00EE0D
:1014E00055F010EE04F00900F5CFEEFFE550E150A5
:1014F000FAE102EE00F0680EEE6AE806FDE101EEA8
:1015000000F09C0EEE6AE806FDE100EE60F07B0E56
:10151000EE6AE806FDE100EE45F0100EEE6AE80620
:10152000FDE101900192000104EF89F0000E00013D
:10153000606F000E616F000E626F000E636F000E31
:101540006C6F000E6D6F000E6E6F000E6F6F000EF1
:10155000706F000E716F000E726F000E736F086A6D
:101560000850040DF350640FD96EDA6ADE6ADE6A41
:10157000DE6ADD6A082A010E0864C1EF8AF0C3EF53
:101580008AF0B0EF8AF0096A0950040DF350780F21
:10159000D96EDA6ADE6ADE6ADE6ADD6A092A010E5F
:1015A0000964D5EF8AF0D7EF8AF0C4EF8AF0000E15
:1015B0000001806F000E816F000E826F000E836F3E
:1015C00012000C500D100E100F10D8B4EAEF8AF074
:1015D000ECEF8AF01CEF8BF0010E106EF6EF8AF044
:1015E000D8900C360D360E360F36102A0FAEFBEFA4
:1015F0008AF0FDEF8AF0F0EF8AF00C50085C0D5095
:1016000009580E500A580F500B58D8A00AEF8BF00B
:101610000CEF8BF014EF8BF00C50085E0D50095A54
:101620000E500A5A0F500B5AD8900F320E320D320C
:101630000C32102EFDEF8AF008C008F009C009F046
:101640000AC00AF00BC00BF012009D9ADC0E086E67
:101650000F0E096E010E0A6E2CEC8EF09D98A80EEE
:10166000086E190E096E010E0A6E25EC8EF0080E3A
:101670007E6E900EAB6E240EAC6E8A0EAF6E020EB6
:101680007F6ED20E086E1C0E096E010E0A6E3AECC9
:101690008EF0B40E086E1C0E096E010E0A6E33EC4D
:1016A0008EF0BA0E086E1C0E096E010E0A6E41EC29
:1016B0008EF00001A36B536A526A080E516E506A95
:1016C0004F6AA46B9D8A12001CBE6BEF8BF069EF12
:1016D0008BF06EEF8BF01C6A000E1B6E1F6A000E03
:1016E0001E6E7CEF8BF00B6A200E0A6E18C00CF099
:1016F0004EEC88F01E4A1F2A1B501E5C1F50800AA9
:101700001D6E1C50800A1D58D8A089EF8BF08BEFFE
:101710008BF073EF8BF019C012F01AC013F018C0E1
:1017200014F0B5EC8CF0120008C0D9FF09C0DAFF44
:1017300084CEDFFF20EE01F00850D9260950DA22CE
:1017400085CEDFFF20EE02F00850D9260950DA22BC
:1017500082CEDFFF20EE03F00850D9260950DA22AE
:1017600083CEDFFF20EE04F00850D9260950DA229C
:1017700080CEDFFF20EE05F00850D9260950DA228E
:1017800081CEDFFF120008C0D9FF09C0DAFF84CE86
:10179000DFFF20EE01F00850D9260950DA2285CE6D
:1017A000DFFF20EE02F00850D9260950DA2282CE5F
:1017B000DFFF20EE03F00850D9260950DA2283CE4D
:1017C000DFFF20EE04F00850D9260950DA2280CE3F
:1017D000DFFF20EE05F00850D9260950DA2281CE2D
:1017E000DFFF1200000EF2BE010E0C6EF29E2FC142
:1017F0000DF030C10EF031C10FF032C110F00CB05D
:1018000002D0F29E01D0F28E0850D8B40AEF8CF0CC
:101810000CEF8CF017EF8CF00850D96EDA6A0DC01F
:10182000DEFF0EC0DEFF0FC0DEFF10C0DEFF0DC00A
:1018300008F00EC009F00FC00AF010C00BF0120043
:10184000086E5150D8B427EF8CF029EF8CF021EFBF
:101850008CF09DB82EEF8CF030EF8CF034EF8CF0E4
:1018600008C0ADFF48EF8CF09D98270E5324D96E29
:10187000DA6A010EDA2208C0DFFF532A070E53642A
:1018800044EF8CF046EF8CF047EF8CF0536A510632
:101890009D88120000000000000000000000000011
:1018A0000000000000000000000000000000000038
:1018B00000000000000000000A000000100E000000
:1018C00000000000E5FFD6FF7FFFC2FF4BFF8EFF49
:1018D0006EFFC4FEB0FED8FE25FF12FFB6FFFFFE6E
:1018E000ECFE71FE3DC040F03EC041F081EF8CF057
:1018F0003CC02EF0400E2F6E3FC030F0316A00EC3D
:1019000080F040C0F6FF41C0F7FF000EF86E0800FF
:10191000F5500009D8A48FEF8CF091EF8CF078EFA0
:101920008CF03D6A000E3C6E12009E9092C002F058
:1019300093C003F06BEC8DF00101EC51ED11EE1151
:10194000D8B4A5EF8CF0A7EF8CF0B4EF8CF002D8F0
:10195000B4EF8CF00500FA6EEC51FD6EED51FE6EA9
:10196000EE51FF6EFA5012001200176A000E166E4A
:10197000C3EF8CF015C00AF00B6A14C00CF04EECEB
:1019800088F0164A172A16501224D96E17501320C1
:10199000DA6EDF50156E1550D8A4D1EF8CF0D3EF6E
:1019A0008CF0BAEF8CF01200080E5160DAEF8CF078
:1019B000DCEF8CF0F1EF8CF0270E5224D96EDA6A4E
:1019C000010EDA22DF50AD6E522A070E5264EBEFA1
:1019D0008CF0EDEF8CF0EEEF8CF0526A512AF2EFC2
:1019E0008CF09D98120013BEF8EF8CF0FAEF8CF09B
:1019F00000EF8DF012C012F013C013F00CEF8DF059
:101A000012C014F013C015F0141E151E144A152A26
:101A100014C012F015C013F012008D6A8C6A896A26
:101A20008E6A8A6A8F6A8B6A3F0E966EFE0E976E7A
:101A3000370E926E100E986EF10E936EBB0E946E72
:101A4000070E956EF00EC116F2861200000000001F
:101A50000000000000000000000000000000000086
:101A60000000000000000000000000000000000076
:101A7000100E0000100E0000000000000A6A000EA8
:101A80000A24D96EDA6A020EDA22DF6A0A2A070EFF
:101A90000A644DEF8DF04FEF8DF03FEF8DF0960E15
:101AA000086E010E096EC3EC8BF012001F0E50245D
:101AB000D96EDA6A010EDA22AECFDFFF502A070EA6
:101AC000506465EF8DF067EF8DF068EF8DF0506A30
:101AD0000001A42B1200CDA470EF8DF072EF8DF0F9
:101AE0007AEF8DF0CD900350CF6E02C0CEFFCD8047
:101AF0007EEF8DF00350CF6E02C0CEFF1200CF6A92
:101B0000CE6ACECF92F0CFCF93F09E909D80D00E34
:101B1000086E1C0E096E010E0A6E17EC8EF0010E97
:101B2000CD6E1200F6EC8DF03EEC8DF057EC8EF0A1
:101B30001EEC8EF0A5EC8DF0B8EC8DF0DBEC8DF0AA
:101B400003EC8EF0FBEC89F01200000E4B6E000EE1
:101B50004C6E546A040E00019F6F000E9E6F000EC3
:101B60008C6F000E8D6F000E8E6F000E8F6F120047
:101B7000E00E01012F6FC20E306F1E0E316F4D0E41
:101B8000326F1E0E086E1C0E096E010E0A6E17ECE7
:101B90008EF0120064EC8EF00DEC8DF053EC8EF0B4
:101BA00048EC8EF07FEC8DF025EC8BF0F6EC8DF0B0
:101BB00092EC8DF01200DEEF8DF0000062EC8EF002
:101BC0000009D8B4E6EF8DF0E8EF8DF0DDEF8DF091
:101BD0001200DD0E426E000E3C6EDBC03DF0DCC03C
:101BE0003EF0420E3F6E72EC8CF01200D26A0E0193
:101BF000FE6BFD6BA06BC00EA26FA36BB26BFB6B99
:101C0000606AA46B1200D70E086EF2EC8BF00A0E1D
:101C10000001D727000ED823D923DA231200010EA2
:101C200001012F27000E302331233223120008C078
:101C3000ECF109C0EDF10AC0EEF11200900E086E51
:101C4000010E096E94EC8BF0120008C0FBF109C084
:101C5000FCF10AC0FDF1120008C0F8F109C0F9F169
:101C60000AC0FAF1120008C0F2F109C0F3F10AC08B
:101C7000F4F1120008C0F5F109C0F6F10AC0F7F15D
:101C8000120008C0EFF109C0F0F10AC0F1F1120032
:101C9000CB68CC6A9E92040ECA6E1200096E09507F
:101CA00020EC8CF01200020ED36E9B6A120096ECB0
:101CB0008AF01200AB98AB88120056EC8DF012003F
:101CC00018024041010E1200D09E1200F290120044
:041CD00012001200EC
:06FFF800A0F4C5FFF8F7BC
:00000001FF
