:0400000068EF00F0B5
:100008000182FACF02F0FBCF03F0D9CF04F0DACFA8
:1000180005F0F2A612EF00F014EF00F01FEF00F069
:10002800F2A019EF00F01BEF00F01FEF00F0ECEC6E
:100038000CF05EEF00F0F2AC24EF00F026EF00F0D9
:100048005EEF00F09DA82BEF00F02DEF00F043EFDE
:1000580000F09EA832EF00F034EF00F043EF00F01C
:1000680002D841EF00F00500FA6E5550FD6E56506B
:10007800FE6E5750FF6EFA5012005EEF00F09DAA18
:1000880048EF00F04AEF00F05EEF00F09EAA4FEF55
:1000980000F051EF00F05EEF00F002D85EEF00F0E4
:1000A8000500FA6E5250FD6E5350FE6E5450FF6EAE
:1000B800FA50120005C0DAFF04C0D9FF03C0FBFFE5
:0C00C80002C0FAFF0192110094EF0CF04E
:1010000000001750800B246E175017242B6E16AE5D
:101010000CEF08F00EEF08F00FEF08F02B802B50CC
:10102000D8B415EF08F017EF08F02BEF08F02B28D5
:10103000D8A41DEF08F01FEF08F027EF08F0000E0E
:10104000146E000E156E000E166E000E176E168EC4
:10105000176A33EF08F0000E146E000E156E000EC6
:10106000166E000E176E1B50800B241A1B501B248B
:101070002C6E1AAE3EEF08F040EF08F041EF08F09A
:101080002C802C50D8B447EF08F049EF08F05DEF02
:1010900008F02C28D8A44FEF08F051EF08F059EFD2
:1010A00008F0000E186E000E196E000E1A6E000E7B
:1010B0001B6E1A8E1B6A65EF08F0000E186E000E8C
:1010C000196E000E1A6E000E1B6E185019101A10B1
:1010D0001B10D8A46EEF08F070EF08F088EF08F04E
:1010E000000E146E000E156E000E166E000E176EBA
:1010F000800E16127F0E17122450171214C014F00F
:1011000015C015F016C016F017C017F0C7EF09F09C
:101110002B50D8A48EEF08F090EF08F09AEF08F06B
:10112000000E146E000E156E000E166E000E176E79
:10113000C7EF09F02C502BC01CF01D6A1C5E000E7E
:101140001D5A7F0E1C24256E000E1D20266E14C015
:1011500020F015C021F016C022F017C023F0000EB9
:10116000146E000E156E000E166E000E176E000E39
:10117000276E000E286E000E296E000E2A6E2C6A55
:10118000FAEF08F02C50D8B4C8EF08F0CAEF08F016
:10119000E1EF08F0D8902036213622362336D89059
:1011A00014361536163617362AAED9EF08F0DBEFAF
:1011B00008F0DCEF08F01480D8902736283629365E
:1011C0002A361850205C195021581A5022581B50AA
:1011D0002358D8A0EEEF08F0F0EF08F0F9EF08F090
:1011E0002A8C1850205E1950215A1A50225A1B502E
:1011F000235A2C2A190E2C6400EF09F002EF09F093
:10120000C2EF08F02050211022102310D8B40BEFA9
:1012100009F00DEF09F025EF09F0278025EF09F01F
:10122000D89014361536163617362AAE1AEF09F04E
:101230001CEF09F01DEF09F01480D89027362836EE
:1012400029362A362506D8A0260616AE2AEF09F03A
:101250002CEF09F010EF09F02C6A2AAE32EF09F0FA
:1012600034EF09F058EF09F0FF0E27141C6EFF0E43
:1012700028141D6EFF0E29141E6E7F0E2A141F6E79
:101280001C501D101E101F10D8B449EF09F04BEF71
:1012900009F04FEF09F0010E2C6E58EF09F014A081
:1012A00054EF09F056EF09F058EF09F04BEF09F051
:1012B0002C50D8B45EEF09F060EF09F084EF09F02C
:1012C000010E1426000E15221622172217A06BEF0E
:1012D00009F06DEF09F084EF09F014C01CF015C09F
:1012E0001DF016C01EF017C01FF01F341F321E3233
:1012F0001D321C321CC014F01DC015F01EC016F0AB
:101300001FC017F0254A262A26BE8FEF09F0265067
:1013100008E12528D8A08FEF09F091EF09F09CEFA4
:1013200009F0000E266E2568000E146E000E156E74
:10133000000E166E000E176E26BEA9EF09F026509D
:1013400006E12504D8B0A7EF09F0A9EF09F0B5EF41
:1013500009F0266A000E256E000E146E000E156E42
:10136000000E166E000E176E246A25C02BF02BA0FF
:10137000BCEF09F0BEEF09F0C1EF09F0168EC2EF25
:1013800009F0169ED8902B30176E7CEF08F01200F3
:101390000E6E0E50D8B4CFEF09F0D1EF09F0F3EF95
:1013A00009F009BED8EF09F0D6EF09F0F3EF09F024
:1013B00006C00AF007C00BF008C00CF009C00DF021
:1013C0000A1E0B1E0C1E0D1E0A2A000E0B220C22DA
:1013D0000D220AC010F00BC011F00CC012F00DC0AD
:1013E00013F0FBEF09F006C010F007C011F008C0C1
:1013F00012F009C013F00650071008100910D8A405
:1014000004EF0AF006EF0AF010EF0AF0000E066E85
:10141000000E076E000E086E000E096EA1EF0AF0B6
:10142000960E0F6E1AEF0AF00F2AD890133212326E
:1014300011321032000E10140A6E000E11140B6ED1
:10144000000E12140C6EFE0E13140D6E0A500B10CB
:101450000C100D10D8A42FEF0AF031EF0AF014EFA2
:101460000AF03FEF0AF00F2A010E1026000E11229B
:1014700012221322D8901332123211321032000E7F
:1014800010140A6E000E11140B6E000E12140C6E66
:10149000FF0E13140D6E0A500B100C100D10D8A473
:1014A00054EF0AF056EF0AF033EF0AF05EEF0AF05D
:1014B0000F06D890103611361236133612BE63EF6F
:1014C0000AF065EF0AF06DEF0AF0020E0F606BEFA5
:1014D0000AF06DEF0AF058EF0AF00FB072EF0AF061
:1014E00074EF0AF075EF0AF0129ED8900F320FC019
:1014F0000AF00B6A0C6A0D6A0AC00DF00C6A0B6ADE
:101500000A6A0A5010120B5011120C5012120D5090
:1015100013120E50D8B48FEF0AF091EF0AF099EF42
:101520000AF009BE98EF0AF096EF0AF099EF0AF078
:10153000138E10C006F011C007F012C008F013C0DF
:1015400009F012002F343034366E3650D8A4ABEF89
:101550000AF0ADEF0AF0B7EF0AF0000E2D6E000EA4
:101560002E6E000E2F6E000E306E24EF0BF02DC08D
:1015700031F02EC032F02FC033F030C034F0200EE6
:10158000C7EF0AF0D8903432333232323132E82E9B
:10159000C2EF0AF03150356E2F8EFF0E2D16FF0E62
:1015A0002E16FF0E2F16000E3016960E365E36BE25
:1015B000DEEF0AF0DCEF0AF0F4EF0AF03650800AB2
:1015C000970FD8B0E6EF0AF0E8EF0AF0EAEF0AF07A
:1015D000ADEF0AF0D89030322F322E322D32363E17
:1015E000EAEF0AF00CEF0BF01F0E3664FAEF0AF088
:1015F000FCEF0AF004EF0BF0ADEF0AF0D8902D36B7
:101600002E362F36303636063650D8A40AEF0BF079
:101610000CEF0BF0FEEF0AF03550D8B412EF0BF0E0
:1016200014EF0BF01CEF0BF0301E2F1E2E1E2D6C36
:10163000000E2E222F2230222DC02DF02EC02EF093
:101640002FC02FF030C030F012004E503B0FD96E3B
:10165000DA6ADF6AABA42FEF0BF031EF0BF044EF47
:101660000BF04E503B0FD96EDA6ADF8202D844EF9E
:101670000BF00500FA6E00016651FD6E6751FE6EBB
:101680006851FF6EFA501200ABA249EF0BF04BEF1E
:101690000BF05EEF0BF04E503B0FD96EDA6ADF8431
:1016A00002D85EEF0BF00500FA6E00016351FD6E8B
:1016B0006451FE6E6551FF6EFA5012004E503B0FA2
:1016C000D96EDA6ADF50D8B468EF0BF06AEF0BF02E
:1016D0007AEF0BF002D878EF0BF00500FA6E0001FC
:1016E0006051FD6E6151FE6E6251FF6EFA50120044
:1016F0007CEF0BF082EC0CF01200000E0001716F19
:10170000000E726F000E736F000E746FCF6A000EC2
:10171000CE6E8086140EE82EFED700D0809681AA69
:1017200094EF0BF096EF0BF08FEF0BF0CD8081BABA
:101730009CEF0BF09EEF0BF097EF0BF0CD90AE0E01
:10174000186E470E196E6B0E1A6E420E1B6ECECFC0
:1017500006F0CFCF07F0086A096A000EC8EC09F05E
:1017600006C014F007C015F008C016F009C017F045
:1017700001EC08F014C02DF015C02EF016C02FF0AB
:1017800017C030F0A2EC0AF02DC075F02EC076F034
:101790002FC077F030C078F075C037F076C038F0E1
:1017A00012009D9A4A0E066E160E076E000E086E07
:1017B000C4EC0CF09D98980E066E180E076E000E85
:1017C000086EBDEC0CF0080E7E6E900EAB6E240E13
:1017D000AC6E8A0EAF6E020E7F6EDC0E066E190EB8
:1017E000076E000E086ED2EC0CF0C80E066E190ED5
:1017F000076E000E086ECBEC0CF0CE0E066E190EC6
:10180000076E000E086ED9EC0CF04B6A516A506AF4
:10181000080E4F6E4E6A4D6A4C6A9D8A1200B2ECF9
:101820000CF0CF6A000ECE6ECD92CD98CD9A81820B
:101830008184100E3A6EDB0E396E640EE82EFED7F0
:10184000392EFCD73A2EFAD700D0819281947DECC4
:101850000BF038BE36EF0CF03704020E3858D8B013
:1018600034EF0CF036EF0CF03AEF0CF081828194FB
:101870003CEF0CF081928184080E3A6EEE0E396EC8
:10188000310EE82EFED7392EFCD73A2EFAD70000BB
:1018900027EF0CF068EF00F0080E4F6052EF0CF0ED
:1018A00054EF0CF067EF0CF05050430FD96EDA6A2A
:1018B000DF50AD6E502A070E506461EF0CF063EFFD
:1018C0000CF064EF0CF0506A4F2A68EF0CF09D9812
:1018D00012008D6A8C6A896A8E6A8A6A8F6A8B6A3C
:1018E0003F0E966EFE0E976E370E926E100E986E2D
:1018F000F10E936EBB0E946E070E956EF00EC11630
:10190000F28612004E50690FD96EDA6AAECFDFFF51
:101910004E2A070E4E648FEF0CF091EF0CF092EF11
:101920000CF04E6A4C2A120000EE69F0080EEE6AC6
:10193000E806FDE100EE3BF0170EEE6AE806FDE179
:101940000190019200010FEF0CF0D26A0E01FE6BC4
:10195000FD6BA06BC00EA26FA36BB26BFB6B606ADA
:10196000A46B1200EAEC0CF069EC0CF0E0EC0CF06B
:10197000D1EC0BF0A5EC0CF0120006C055F007C03E
:1019800056F008C057F0120006C052F007C053F0DE
:1019900008C054F0120006C063F007C064F008C02D
:1019A00065F0120006C066F007C067F008C068F076
:1019B000120006C060F007C061F008C062F01200BB
:1019C000020ED36E9B6A1200AB98AB88120082ECB9
:0E19D0000CF01200D09E1200F29012001200D5
:020000040001F9
:06FFF800A0F4C5FFF8F7BC
:00000001FF
